:0400000014EF00F009
:10000800FACF44F4FBCF45F4E9CF46F455ED0DF0B3
:10001800D8CF6BF4E8CF6CF4E0CF6DF44DEF00F07F
:1000280000EEE2F0940EF66E000EF76E10EE05F09C
:1000380041EC00F000EE00F010EEE2F03AEC00F0D7
:1000480001EE00F010EEC8F03AEC00F002EE00F01D
:1000580010EEC8F03AEC00F003EE00F010EE64F099
:100068003AEC00F0000EF86E94EF05F0EE6AE550F9
:10007800E150FCE1E250FAE112000900F5CFEEFF91
:10008800E550E150FAE1E250F8E112003075F30171
:100098000100FACF6EF4FBCF6FF4E9CF70F4EACF2A
:1000A80071F4E1CF72F4E2CF73F4D9CF74F4DACFFC
:1000B80075F4F3CF76F4F4CF77F4F6CF78F4F7CF7E
:1000C80079F4F8CF7AF40400F0A001D001D005D07B
:1000D800F0A601D001D001D0F090F2A401D002D056
:1000E80060EF05F0F2AA01D002D060EF05F0F294BB
:1000F8003C0ED76EB00ED66EF40E375C010E385833
:10010800D8B001D001D003D0374A382A01D0829222
:100118000950020D00014B0EF324E96EEA6A000152
:10012800000EEA22EE5000010001C25FED5000010E
:100138000001C35B0401666F010E040104017B6FBB
:10014800040166518EEC33F00950020D00014B0E8C
:10015800F324E96EEA6A0001000EEA2204017BC476
:10016800EEFF04017CC4EDFF0950020D00014B0EA7
:10017800F324E96EEA6A0001000EEA22EE5000015B
:100188000001C227ED5000010001C3230950020DF0
:100198000301000EF324E96EEA6A0301030EEA2262
:1001A800EE5000010001C45FED5000010001C55B85
:1001B8000401666F020E040104017B6F040166519D
:1001C8008EEC33F00950020D0301000EF324E96EA2
:1001D800EA6A0301030EEA2204017BC4EEFF04016C
:1001E8007CC4EDFF0950020D0301000EF324E96EF3
:1001F800EA6A0301030EEA22EE5000010001C42757
:10020800ED5000010001C5230950020D0201000E46
:10021800F324E96EEA6A0201020EEA22EE500001B6
:100228000001C05FED5000010001C15B0401666F71
:10023800030E040104017B6F040166518EEC33F058
:100248000950020D0201000EF324E96EEA6A020168
:10025800020EEA2204017BC4EEFF04017CC4EDFF18
:100268000950020D0201000EF324E96EEA6A020148
:10027800020EEA22EE5000010001C027ED500001F5
:100288000001C1230950020D0101640EF324E96E37
:10029800EA6A0101010EEA22EE5000010001CE5F78
:1002A800ED5000010001CF5B0401666F000E0401F0
:1002B80004017B6F040166518EEC33F00950020D86
:1002C8000101640EF324E96EEA6A0101010EEA22D3
:1002D80004017BC4EEFF04017CC4EDFF0950020D4C
:1002E8000101640EF324E96EEA6A0101010EEA22B3
:1002F800EE5000010001CE27ED5000010001CF2390
:100308000950020D0201640EF324E96EEA6A020143
:10031800020EEA22EE5000010001BE5FED5000011E
:100328000001BF5B0401666F040E040104017B6FCA
:10033800040166518EEC33F00950020D0201640E7F
:10034800F324E96EEA6A0201020EEA2204017BC480
:10035800EEFF04017CC4EDFF0950020D0201640E9A
:10036800F324E96EEA6A0201020EEA22EE50000165
:100378000001BE27ED5000010001BF230950020D06
:100388000101000EF324E96EEA6A0101010EEA2276
:10039800EE5000010001BC5FED5000010001BD5BA3
:1003A8000401666F050E040104017B6F04016651A8
:1003B8008EEC33F00950020D0101000EF324E96EB2
:1003C800EA6A0101010EEA2204017BC4EEFF04017E
:1003D8007CC4EDFF0950020D0101000EF324E96E03
:1003E800EA6A0101010EEA22EE5000010001BC2771
:1003F800ED5000010001BD23320E040104017D6FA0
:10040800000E04017E6FCEC07BF4CFC07CF4EDEC0F
:1004180036F0040104017BC47BF4040104017CC4AC
:100428007CF4040104017D6B04017E6B2C0E040135
:1004380004017F6F010E0401806F000E0401816FBB
:10044800000E0401826F9EEC38F07BC47BF47CC400
:100458007CF47DC47DF47EC47EF4FF0E04010401A7
:100468007F6F030E0401806F000E0401816F000E80
:100478000401826F74EC25F0080E040104017B2549
:100488003C6E000E040104017C213D6E320E040115
:1004980004017D6F000E04017E6FBEC07BF4BFC0F7
:1004A8007CF4EDEC36F0040104017BC47BF4040118
:1004B80004017CC47CF4040104017D6B04017E6B9F
:1004C800F40E040104017F6F010E0401806F000E19
:1004D8000401816F000E0401826F9EEC38F07BC42A
:1004E8007BF47CC47CF47DC47DF47EC47EF4FF0E72
:1004F800040104017F6F030E0401806F000E0401E4
:10050800816F000E0401826F74EC25F07BC411F03A
:100518007CC412F0320E040104017D6F000E040148
:100528007E6FBCC07BF4BDC07CF4EDEC36F00401FA
:1005380004017BC47BF4040104017CC47CF4040141
:1005480004017D6B04017E6BF40E040104017F6FCE
:10055800010E0401806F000E0401816F000E04017A
:10056800826F9EEC38F07BC47BF47CC47CF47DC441
:100578007DF47EC47EF4FF0E040104017F6F030E38
:100588000401806F000E0401816F000E0401826F68
:1005980074EC25F07BC4C8F07CC4C9F0DEC0E0F080
:1005A800DFC0E1F0320E040104017D6F000E04018A
:1005B8007E6FC2C07BF4C3C07CF4EDEC36F004015E
:1005C80004017BC47BF4040104017CC47CF40401B1
:1005D80004017D6B04017E6BFA0E040104017F6F38
:1005E800000E0401806F000E0401816F000E0401EB
:1005F800826F9EEC38F07BC47BF47CC47CF47DC4B1
:100608007DF47EC47EF4FF0E040104017F6F030EA7
:100618000401806F000E0401816F000E0401826FD7
:1006280074EC25F00A0E040104017B250001000189
:10063800DE6F000E040104017C210001DF6F640EEF
:10064800040104017D6F000E04017E6F00010001AA
:10065800E05100010001DE5D040104017B6F00012F
:100668000001E15100010001DF5904017C6FCAEC6F
:1006780039F07BC4DAF07CC4DBF00FC015F010C091
:1006880016F0320E040104017D6F000E04017E6F26
:10069800C4C07BF4C5C07CF4EDEC36F00401040161
:1006A8007BC47BF4040104017CC47CF404010401D0
:1006B8007D6B04017E6BE80E040104017F6F030E5D
:1006C8000401806F000E0401816F000E0401826F27
:1006D8009EEC38F07BC47BF47CC47CF47DC47DF450
:1006E8007EC47EF4FF0E040104017F6F030E040133
:1006F800806F000E0401816F000E0401826F74EC9C
:1007080025F07BC40FF07CC410F0640E04010401D2
:100718007D6F000E04017E6F15500F5C040104010B
:100728007B6F1650105804017C6FCAEC39F07BC4FB
:100738001BF07CC41CF0BAC0D4F0BBC0D5F0320E9C
:10074800040104017D6F000E04017E6FC0C07BF4BC
:10075800C1C07CF4EDEC36F0040104017BC47BF4E9
:10076800040104017CC47CF4040104017D6B0401D0
:100778007E6BE80E040104017F6F030E0401806F95
:10078800000E0401816F000E0401826F9EEC38F0A8
:100798007BC47BF47CC47CF47DC47DF47EC47EF48D
:1007A800FF0E040104017F6F030E0401806F000E29
:1007B8000401816F000E0401826F74EC25F07BC484
:1007C800BAF07CC4BBF0640E040104017D6F000E16
:1007D80004017E6F00010001D45100010001BA5DDF
:1007E800040104017B6F00010001D55100010001E3
:1007F800BB5904017C6FCAEC39F07BC4D6F07CC4C9
:10080800D7F000010001BA5100010001E45D0001C8
:100818000001D06F00010001BB5100010001E55942
:100828000001D16FD0C0D8F0D1C0D9F00001D0C03C
:1008380066F40001D1C067F4000E040167BFFF0E23
:10084800686F696F0401665100010001AF27040158
:10085800675100010001B023040168510001000143
:10086800B1230401695100010001B2230001000114
:10087800B2AF01D001D002D0008201D000920001B5
:100888000001B2AF01D001D010D000010001B21FA9
:100898000001B11F0001B01F0001AF6D000E000183
:1008A800B0230001B1230001B22300010001E2518D
:1008B8000401666F00010001E3510401676F040140
:1008C800686B0401696B00010001B251800A0401E0
:1008D8006A6F0401665100010001AF5D04016751B0
:1008E80000010001B0590401685100010001B1592B
:1008F80004016951800A04016A59D8A001D001D0C5
:100908000DD000010001E2C0AFF000010001E3C01A
:10091800B0F000010001B16B0001B26B00A201D080
:1009280001D010D000010001B21F0001B11F000169
:10093800B01F0001AF6D000E0001B0230001B1230C
:100948000001B223AFC0D2F0B0C0D3F008C066F443
:100958000401676B04016651115C04016751125868
:10096800D8A001D001D005D0306601D001D001D087
:100978008284FE0E08240401666F0401676BFF0E73
:100988000401672304016651115C04016751125880
:10099800D8B001D001D001D082941150135C12500C
:1009A8001458D8B001D001D004D011C013F012C02F
:1009B80014F000010001C851335C00010001C95165
:1009C8003458D8B001D001D004D0C8C033F0C9C061
:1009D80034F00A50040104017F6F0401806B0401A4
:1009E800816B0401826B07C066F40401676B686B56
:1009F800696B67C469F466C468F40401676B666B65
:100A08000D5004016625040104017B6F0E5004019A
:100A1800672104017C6F000E0401682104017D6FC9
:100A2800000E0401692104017E6F9EEC38F07BC43E
:100A38007FF47CC480F47DC481F47EC482F4800E8B
:100A4800040104017B6FD10E04017C6FF00E0401D8
:100A58007D6F080E04017E6F74EC25F07BC4CAF02C
:100A68007CC4CBF0210E00010001CA5D4E0E0001CE
:100A7800CB59D8B001D001D00BD0F40E0001000141
:100A8800CA5D010E0001CB59D8B001D001D007D002
:100A9800000E00010001CA6F000E0001CB6F092A89
:100AA8000950320AD8A401D001D006D00401666FDB
:100AB800000E096E040166519EA201D001D005D036
:100AC8009DA201D001D001D09E92F0A201D001D008
:100AD80006D0F0A801D001D002D0F092F0987AC4E4
:100AE800F8FF79C4F7FF78C4F6FF77C4F4FF76C43B
:100AF800F3FF75C4DAFF74C4D9FF73C4E2FF72C48C
:100B0800E1FF71C4EAFF70C4E9FF6FC4FBFF6EC464
:100B1800FAFF6DC4E0FF6CC4E8FF6BC4D8FF100097
:100B2800040036EC13F0040000A001D001D004D07A
:100B380052EC35F0AFEF09F000010001E605D8A44A
:100B480001D001D01ED0A8EC23F01CEC3BF0D8A0BB
:100B580001D001D008D00401006F020E000100018D
:100B6800E66F04010051B8EC3BF0D8A001D001D0E9
:100B780008D00401006F090E00010001E66F0401AE
:100B8800005100010001E651020AD8A401D001D0A9
:100B98001ED00BEC2DF01CEC3BF0D8A001D001D0FE
:100BA80008D00401006F030E00010001E66F040184
:100BB8000051B8EC3BF0D8A001D001D008D0040116
:100BC800006F010E00010001E66F040100510001F1
:100BD8000001E651030AD8A401D001D01ED0BBEC15
:100BE8002BF01CEC3BF0D8A001D001D008D00401B8
:100BF800006F040E00010001E66F04010051B8EC1B
:100C08003BF0D8A001D001D008D00401006F020E3B
:100C180000010001E66F0401005100010001E651E6
:100C2800040AD8A401D001D01ED0C0EC35F01CECC9
:100C38003BF0D8A001D001D008D00401006F050E08
:100C480000010001E66F04010051B8EC3BF0D8A0A8
:100C580001D001D008D00401006F030E000100018B
:100C6800E66F0401005100010001E651050AD8A40D
:100C780001D001D01ED061EC2AF01CEC3BF0D8A0CA
:100C880001D001D008D00401006F060E0001000158
:100C9800E66F04010051B8EC3BF0D8A001D001D0B8
:100CA80008D00401006F040E00010001E66F040182
:100CB800005100010001E651060AD8A401D001D074
:100CC8001ED001EC32F01CEC3BF0D8A001D001D0D2
:100CD80008D00401006F070E00010001E66F04014F
:100CE8000051B8EC3BF0D8A001D001D008D00401E5
:100CF800006F050E00010001E66F040100510001BC
:100D08000001E651070AD8A401D001D01ED034EC66
:100D18001CF01CEC3BF0D8A001D001D008D0040195
:100D2800006F080E00010001E66F04010051B8ECE5
:100D38003BF0D8A001D001D008D00401006F060E06
:100D480000010001E66F0401005100010001E651B5
:100D5800080AD8A401D001D01ED07FEC21F01CECE9
:100D68003BF0D8A001D001D008D00401006F090ED3
:100D780000010001E66F04010051B8EC3BF0D8A077
:100D880001D001D008D00401006F070E0001000156
:100D9800E66F0401005100010001E651090AD8A4D8
:100DA80001D001D02CD06DEC3CF01CEC3BF0D8A06D
:100DB80001D001D008D00401006F010E000100012C
:100DC800E66F04010051B8EC3BF0D8A001D001D087
:100DD80008D00401006F080E00010001E66F04014D
:100DE800005143EC3BF0D8A001D001D008D0040159
:100DF800006F150E00010001E66F040100510001AB
:100E08000001E651150AD8A401D001D03AD0F1EC7E
:100E18003AF01CEC3BF0D8A001D001D008D0040176
:100E2800006F160E00010001E66F04010051B8ECD6
:100E38003BF0D8A001D001D008D00401006F1D0EEE
:100E480000010001E66F0401005143EC3BF0D8A01B
:100E580001D001D008D00401006F290E0001000163
:100E6800E66F0401005191EC3BF0D8A001D001D00D
:100E780008D00401006F090E00010001E66F0401AB
:100E8800005100010001E651160AD8A401D001D092
:100E98003AD03CEC39F01CEC3BF0D8A001D001D0A2
:100EA80008D00401006F170E00010001E66F04016D
:100EB8000051B8EC3BF0D8A001D001D008D0040113
:100EC800006F150E00010001E66F0401005143ECAC
:100ED8003BF0D8A001D001D008D00401006F2A0E41
:100EE80000010001E66F0401005191EC3BF0D8A02D
:100EF80001D001D008D00401006F090E00010001E3
:100F0800E66F0401005100010001E651170AD8A458
:100F180001D001D03AD00BEC33F01CEC3BF0D8A058
:100F280001D001D008D00401006F180E00010001A3
:100F3800E66F04010051B8EC3BF0D8A001D001D015
:100F480008D00401006F160E00010001E66F0401CD
:100F5800005143EC3BF0D8A001D001D008D00401E7
:100F6800006F2B0E00010001E66F0401005191ECA7
:100F78003BF0D8A001D001D008D00401006F090EC1
:100F880000010001E66F0401005100010001E65173
:100F9800180AD8A401D001D03AD088EC32F01CEC61
:100FA8003BF0D8A001D001D008D00401006F190E81
:100FB80000010001E66F04010051B8EC3BF0D8A035
:100FC80001D001D008D00401006F170E0001000104
:100FD800E66F0401005143EC3BF0D8A001D001D0EA
:100FE80008D00401006F2C0E00010001E66F040117
:100FF800005191EC3BF0D8A001D001D008D00401F9
:10100800006F090E00010001E66F040100510001A4
:101018000001E651190AD8A401D001D03AD0F0EC69
:1010280038F01CEC3BF0D8A001D001D008D0040166
:10103800006F1A0E00010001E66F04010051B8ECC0
:101048003BF0D8A001D001D008D00401006F180EE1
:1010580000010001E66F0401005143EC3BF0D8A009
:1010680001D001D008D00401006F2D0E000100014D
:10107800E66F0401005191EC3BF0D8A001D001D0FB
:1010880008D00401006F090E00010001E66F040199
:10109800005100010001E6511A0AD8A401D001D07C
:1010A8003AD072EC34F01CEC3BF0D8A001D001D05F
:1010B80008D00401006F1B0E00010001E66F040157
:1010C8000051B8EC3BF0D8A001D001D008D0040101
:1010D800006F190E00010001E66F0401005143EC96
:1010E8003BF0D8A001D001D008D00401006F2E0E2B
:1010F80000010001E66F0401005191EC3BF0D8A01B
:1011080001D001D008D00401006F090E00010001D0
:10111800E66F0401005100010001E6511B0AD8A442
:1011280001D001D03AD086EC39F01CEC3BF0D8A0C5
:1011380001D001D008D00401006F1C0E000100018D
:10114800E66F04010051B8EC3BF0D8A001D001D003
:1011580008D00401006F1A0E00010001E66F0401B7
:10116800005143EC3BF0D8A001D001D008D00401D5
:10117800006F2F0E00010001E66F0401005191EC91
:101188003BF0D8A001D001D008D00401006F090EAF
:1011980000010001E66F0401005100010001E65161
:1011A8001C0AD8A401D001D03AD06AEC3BF01CEC60
:1011B8003BF0D8A001D001D008D00401006F1D0E6B
:1011C80000010001E66F04010051B8EC3BF0D8A023
:1011D80001D001D008D00401006F1B0E00010001EE
:1011E800E66F0401005143EC3BF0D8A001D001D0D8
:1011F80008D00401006F300E00010001E66F040101
:10120800005191EC3BF0D8A001D001D008D00401E6
:10121800006F090E00010001E66F04010051000192
:101228000001E6511D0AD8A401D001D03AD08EECB5
:1012380036F01CEC3BF0D8A001D001D008D0040156
:10124800006F150E00010001E66F04010051B8ECB3
:101258003BF0D8A001D001D008D00401006F1C0ECB
:1012680000010001E66F0401005143EC3BF0D8A0F7
:1012780001D001D008D00401006F310E0001000137
:10128800E66F0401005191EC3BF0D8A001D001D0E9
:1012980008D00401006F090E00010001E66F040187
:1012A800005100010001E651290AD8A401D001D05B
:1012B80002D09CEC22F000010001E6512A0AD8A4D1
:1012C80001D001D002D039EC20F000010001E65134
:1012D8002B0AD8A401D001D002D0A6EC1DF0000141
:1012E8000001E6512C0AD8A401D001D002D014EC98
:1012F80028F000010001E6512D0AD8A401D001D040
:1013080002D0F7EC2EF000010001E6512E0AD8A415
:1013180001D001D002D0F2EC1EF000010001E6512C
:101328002F0AD8A401D001D002D0D0EC30F00001AF
:101338000001E651300AD8A401D001D002D0E2EC75
:1013480034F000010001E651310AD8A401D001D0DF
:1013580002D0E0EC28F03E50115C3F501258D8A063
:1013680001D001D00ED05A0E3E5C000E3F58D8A0D6
:1013780001D001D006D00650D8B401D001D001D098
:1013880000803E50115C3F501258D8B001D001D0B7
:1013980007D00401006F010E066E04010051009091
:1013A80097EF05F014EF00F0040104010351E30A7C
:1013B8000411D8A401D001D05AD00401056F700ED1
:1013C800040104010D6F04010551D3EC3CF0040144
:1013D800056F0A0E040104010C6F04010551DAECD3
:1013E8003CF00401056F140E040104010C6F0401A4
:1013F8000551DAEC3CF00401056F000E040104010C
:101408000C6F04010551DAEC3CF00401056F0D0E78
:10141800040104010C6F04010551DAEC3CF00401ED
:10142800056F130E040104010C6F04010551DAEC79
:101438003CF00401056F130E040104010C6F040154
:101448000551DAEC3CF00401056F0D0E04010401AE
:101458000C6F04010551DAEC3CF00401056F000E35
:10146800040104010C6F04010551DAEC3CF004019D
:1014780004010351E10A0411D8A401D001D05AD0C3
:101488000401056F780E040104010D6F0401055174
:10149800D3EC3CF00401056F020E040104010C6F4B
:1014A80004010551DAEC3CF00401056F040E040157
:1014B80004010C6F04010551DAEC3CF00401056FDE
:1014C800000E040104010C6F04010551DAEC3CF034
:1014D8000401056F0D0E040104010C6F0401055190
:1014E800DAEC3CF00401056F130E040104010C6FE3
:1014F80004010551DAEC3CF00401056F130E0401F8
:1015080004010C6F04010551DAEC3CF00401056F8D
:101518000D0E040104010C6F04010551DAEC3CF0D6
:101528000401056F000E040104010C6F040105514C
:10153800DAEC3CF0040104010351E90A0411D8A4CF
:1015480001D001D05AD00401056F700E04010401C6
:101558000D6F04010551D3EC3CF00401056F020E38
:10156800040104010C6F04010551DAEC3CF004019C
:10157800056F040E040104010C6F04010551DAEC37
:101588003CF00401056F0E0E040104010C6F040108
:101598000551DAEC3CF00401056F110E0401040159
:1015A8000C6F04010551DAEC3CF00401056F1F0EC5
:1015B800040104010C6F04010551DAEC3CF004014C
:1015C800056F100E040104010C6F04010551DAECDB
:1015D8003CF00401056F0E0E040104010C6F0401B8
:1015E8000551DAEC3CF00401056F000E040104011A
:1015F8000C6F04010551DAEC3CF0040104010351BD
:10160800C30A0411D8A401D001D05AD00401056F2F
:10161800780E040104010D6F04010551D3EC3CF070
:101628000401056F0A0E040104010C6F0401055141
:10163800DAEC3CF00401056F140E040104010C6F90
:1016480004010551DAEC3CF00401056F0E0E0401AB
:1016580004010C6F04010551DAEC3CF00401056F3C
:10166800110E040104010C6F04010551DAEC3CF081
:101678000401056F1F0E040104010C6F04010551DC
:10168800DAEC3CF00401056F110E040104010C6F43
:1016980004010551DAEC3CF00401056F110E040158
:1016A80004010C6F04010551DAEC3CF00401056FEC
:1016B800000E040104010C6F04010551DAEC3CF042
:1016C800040104010351C10A0411D8A401D001D0B6
:1016D8005AD00401056F780E040104010D6F04014E
:1016E8000551D3EC3CF00401056F020E040104011E
:1016F8000C6F04010551DAEC3CF00401056F040E8F
:10170800040104010C6F04010551DAEC3CF00401FA
:10171800056F0E0E040104010C6F04010551DAEC8B
:101728003CF00401056F110E040104010C6F040163
:101738000551DAEC3CF00401056F1F0E04010401A9
:101748000C6F04010551DAEC3CF00401056F110E31
:10175800040104010C6F04010551DAEC3CF00401AA
:10176800056F110E040104010C6F04010551DAEC38
:101778003CF00401056F000E040104010C6F040124
:101788000551DAEC3CF0040104010351F50A041197
:10179800D8A401D001D05AD00401056F700E0401FD
:1017A80004010D6F04010551D3EC3CF00401056FF1
:1017B8000A0E040104010C6F04010551DAEC3CF037
:1017C8000401056F140E040104010C6F0401055196
:1017D800DAEC3CF00401056F000E040104010C6F03
:1017E80004010551DAEC3CF00401056F0E0E04010A
:1017F80004010C6F04010551DAEC3CF00401056F9B
:10180800110E040104010C6F04010551DAEC3CF0DF
:101818000401056F110E040104010C6F0401055148
:10182800DAEC3CF00401056F0E0E040104010C6FA4
:1018380004010551DAEC3CF00401056F000E0401C7
:1018480004010C6F04010551DAEC3CF004010401B9
:101858000351ED0A0411D8A401D001D05AD00401D3
:10186800056F700E040104010D6F04010551D3ECDE
:101878003CF00401056F020E040104010C6F040121
:101888000551DAEC3CF00401056F040E0401040173
:101898000C6F04010551DAEC3CF00401056F000EF1
:1018A800040104010C6F04010551DAEC3CF0040159
:1018B800056F0C0E040104010C6F04010551DAECEC
:1018C8003CF00401056F040E040104010C6F0401CF
:1018D8000551DAEC3CF00401056F040E0401040123
:1018E8000C6F04010551DAEC3CF00401056F0E0E93
:1018F800040104010C6F04010551DAEC3CF0040109
:10190800056F000E040104010C6F04010551DAECA7
:101918003CF00401040103515E0A0411D8A401D06B
:1019280001D05AD00401056F700E040104010D6F37
:1019380004010551D3EC3CF00401056F000E0401CD
:1019480004010C6F04010551DAEC3CF00401056F49
:10195800040E040104010C6F04010551DAEC3CF09B
:101968000401056F0E0E040104010C6F04010551FA
:10197800DAEC3CF00401056F1F0E040104010C6F42
:1019880004010551DAEC3CF00401056F040E040172
:1019980004010C6F04010551DAEC3CF00401056FF9
:1019A800040E040104010C6F04010551DAEC3CF04B
:1019B8000401056F040E040104010C6F04010551B4
:1019C800DAEC3CF00401056F000E040104010C6F11
:1019D80004010551DAEC3CF0040104010351760AD4
:1019E8000411D8A401D001D05AD00401056F780E93
:1019F800040104010D6F04010551D3EC3CF004010E
:101A0800056F000E040104010C6F04010551DAECA6
:101A18003CF00401056F040E040104010C6F04017D
:101A28000551DAEC3CF00401056F040E04010401D1
:101A38000C6F04010551DAEC3CF00401056F040E4B
:101A4800040104010C6F04010551DAEC3CF00401B7
:101A5800056F1F0E040104010C6F04010551DAEC37
:101A68003CF00401056F0E0E040104010C6F040123
:101A78000551DAEC3CF00401056F040E0401040181
:101A88000C6F04010551DAEC3CF00401056F000EFF
:101A9800040104010C6F04010551DAEC3CF000D09C
:101AA80012000600EACF47F4E1CF48F4E2CF49F448
:101AB800D9CF4AF4DACF4BF4F3CF4CF4F4CF4DF44A
:101AC800F6CF4EF4F7CF4FF4F8CF50F40400F2A25B
:101AD80001D001D0AED2F2A801D001D0AAD2F292A0
:101AE800CD90CECF0DF0CFCF0EF005C007F09E9071
:101AF800000ECF6E000ECE6E000ECE6E000ECF6EB4
:101B08000401426F000E056E04014251CD80090E9A
:101B180000010001CA5D070E0001CB59D8A001D011
:101B280001D012D0320E0F5C000E1058D8B001D080
:101B380001D00AD00150D8B401D001D005D0000E90
:101B48001D6E000E1E6EDED1828000010001DE5186
:101B58000B5C00010001DF510C58D8B001D001D056
:101B680015D00001DEC042F40001DFC043F40B5081
:101B78000401425F0C500401435B0B5004014225F1
:101B8800036E0C5004014321046E16D00BC042F4BE
:101B98000CC043F400010001DE510401425F000162
:101BA8000001DF510401435B0B5004014225036E21
:101BB8000C5004014321046E110E00010001C825D8
:101BC80000010001C66F010E00010001C9210001DA
:101BD800C76F00010401BAC055F400010401BBC07D
:101BE80056F404010401576B0401586BB6C051F454
:101BF800B7C052F4B8C053F4B9C054F492EC24F00E
:101C080051C436F452C437F453C438F454C439F4C4
:101C180036C451F437C452F438C453F439C454F4B4
:101C2800040103C055F4040104C056F40401000E75
:101C3800040156BFFF0E0401576F0401586FFAECF8
:101C480037F051C43AF452C43BF453C43CF454C47E
:101C58003DF43AC451F43BC452F43CC453F43DC47B
:101C680054F400010401C6C055F400010401C7C0C2
:101C780056F40401000E040156BFFF0E0401576F0D
:101C88000401586F92EC24F051C43EF452C43FF45E
:101C980053C440F454C441F43EC451F43FC452F414
:101CA80040C453F441C454F4B2EC2DF051C41BF4B5
:101CB80052C41CF453C41DF4D2C051F4D3C052F41E
:101CC8002AEC36F051C41EF452C41FF453C420F455
:101CD8001EC451F41FC452F420C453F4D70E040197
:101CE8000401546FA30E04010401556F3C0E040156
:101CF8000401566F38EC27F051C421F452C422F481
:101D080053C423F421C454F422C455F423C456F410
:101D18001BC451F41CC452F41DC453F414EC19F040
:101D280051C424F452C425F453C426F4000100011C
:101D3800DA511B2404010401516F00010001DB5139
:101D48001C200401526F2AEC36F051C427F452C407
:101D580028F453C429F427C451F428C452F429C4DC
:101D680053F4CD0E04010401546FCC0E0401040198
:101D7800556F3F0E04010401566F38EC27F051C42B
:101D88002AF452C42BF453C42CF42AC454F42BC49C
:101D980055F42CC456F424C451F425C452F426C472
:101DA80053F414EC19F051C42DF452C42EF453C456
:101DB8002FF40001D6C042F40001D7C043F400015B
:101DC8000001D8510401422700010001D951040142
:101DD8004323D8900401423504010401516F0401E2
:101DE80043350401526F2AEC36F051C430F452C422
:101DF80031F453C432F430C454F431C455F432C409
:101E080056F42DC451F42EC452F42FC453F414ECD8
:101E180019F051C433F452C434F453C435F40250A5
:101E2800640DF3CF51F4F4CF52F42AEC36F051C4D8
:101E380054F452C455F453C456F433C451F434C45E
:101E480052F435C453F414EC19F051C451F452C48B
:101E580052F453C453F455EC2EF051C41DF052C43F
:101E68001EF01E50800A1F0FA90ED8B41D5CD8A002
:101E780001D001D004D0A80E1D6E610E1E6E1E503A
:101E8800800A7C0FB00ED8B41D5CD8B001D001D048
:101E980004D0B00E1D6E040E1E6EA1928C0E1D2471
:101EA80004010401516FFB0E1E200401526F2AEC3D
:101EB80036F051C451F452C452F453C453F4000ED2
:101EC80004010401546F200E04010401556F400EF3
:101ED80004010401566F38EC27F051C451F452C480
:101EE80052F453C453F455EC2EF00401040151513B
:101EF8000008B26E040104015251D8A0E82A000873
:101F0800B36EB180000E376E000E386E82820A0EF4
:101F180004010401536F000E0401546F1DC051F4F5
:101F28001EC052F469EC31F051C440F052C441F083
:101F3800CAC053F4CBC054F404010AC051F40401DC
:101F48000401526BFDEC39F00401040151C455F44D
:101F58000401040152C456F404010401576B04013E
:101F6800586BC00E04010401516FD40E0401526F66
:101F7800010E0401536F000E0401546F92EC24F01B
:101F880051C455F452C456F453C457F454C458F4C5
:101F9800040140C051F4040141C052F40401040199
:101FA800536B0401546B92EC24F051C444F052C4B6
:101FB80045F000010001DC5100010001DE5D000177
:101FC8000001DD5100010001DF59D8B001D001D076
:101FD80004D0DEC0DCF0DFC0DDF000010001CA5132
:101FE80000010001CC5D00010001CB51000100019E
:101FF800CD59D8B001D001D004D0CAC0CCF0CBC0E4
:10200800CDF04050425C41504358D8B001D001D087
:1020180004D040C042F041C043F04450465C4550B3
:102028004758D8B001D001D004D044C046F045C0CC
:1020380047F09EA001D001D02ED09DA001D001D0A4
:102048002AD09E90052A0550050AD8A401D001D0AF
:1020580022D0CD90000ECF6E000ECE6E0401426FDE
:10206800000E056E04014251000E0D6E000E0E6E3C
:10207800000E00010001CA6F000E0001CB6F000EB8
:102088001D6E000E1E6E000E406E000E416E000E9C
:10209800446E000E456EA1A201D001D007D0A0A2C7
:1020A80001D001D003D0A192B190829000D050C449
:1020B800F8FF4FC4F7FF4EC4F6FF4DC4F4FF4CC4FD
:1020C800F3FF4BC4DAFF4AC4D9FF49C4E2FF48C44E
:1020D800E1FF47C4EAFF46C4E9FF45C4FBFF44C427
:1020E800FAFF11000401076F000E266E0401075164
:1020F8000401076F000E276E040107510401076FE2
:10210800000E206E040107510401076F000E256EB2
:10211800040107510401076F000E246E04010751E2
:102128000401076F000E236E040107510401076FB5
:10213800000E286E040107510401076F000E216E7E
:10214800040107510401076F000E226E04010751B4
:10215800040104010651800A800F0BE1000E0401FE
:10216800055D07E1000E0401045D03E10A0E0401A8
:10217800035DD8B001D001D006D00401076FF00E7E
:10218800276E04010751040104010651800A800FDB
:102198000BE1000E0401055D07E1000E0401045D7A
:1021A80003E1640E0401035DD8B001D001D006D06C
:1021B8000401076FF00E206E0401075104010401A9
:1021C8000651800A800F0BE1000E0401055D07E14E
:1021D800030E0401045D03E1E80E0401035DD8B0B9
:1021E80001D001D006D00401076FF00E256E04015E
:1021F8000751040104010651800A800F0BE1000E0B
:102208000401055D07E1270E0401045D03E1100EDA
:102218000401035DD8B001D001D006D00401076FD6
:10222800F00E246E04010751040104010651800ACE
:10223800800F0BE1010E0401055D07E1860E040124
:10224800045D03E1A00E0401035DD8B001D001D004
:1022580006D00401076FF00E236E04010751040134
:1022680004010651800A800F0BE10F0E0401055D81
:1022780007E1420E0401045D03E1400E0401035D21
:10228800D8B001D001D006D00401076FF00E286E37
:1022980004010751040104010651800A800F0BE173
:1022A800980E0401055D07E1960E0401045D03E143
:1022B800800E0401035DD8B001D001D006D004011E
:1022C800076FF00E216E0401075104010401065145
:1022D800800A7B0F0BE1F50E0401055D07E1E10EB5
:1022E8000401045D03E1000E0401035DD8B001D0D0
:1022F80001D006D00401076FF00E226E04010751C9
:102308001AD0000E04010401032504010401036F1F
:102318001F0E0401040104210401046F0A0E0401C4
:10232800040105210401056FFA0E040104010621C8
:102338000401066F222A040104010651800A7B0F5A
:102348000BE1F50E0401055D07E1E10E0401045DF2
:1023580003E1000E0401035DD8B001D001D0D1D74C
:102368001AD0800E04010401032504010401036F3F
:10237800690E0401040104210401046F670E0401BD
:10238800040105210401056FFF0E04010401062163
:102398000401066F212A040104010651800A800FF6
:1023A8000BE1980E0401055D07E1960E0401045D3A
:1023B80003E1800E0401035DD8B001D001D0D1D76C
:1023C8001AD0C00E04010401032504010401036F9F
:1023D800BD0E0401040104210401046FF00E040180
:1023E800040105210401056FFF0E04010401062103
:1023F8000401066F282A040104010651800A800F8F
:102408000BE10F0E0401055D07E1420E0401045DB6
:1024180003E1400E0401035DD8B001D001D0D1D74B
:102428001AD0600E04010401032504010401036F9E
:10243800790E0401040104210401046FFE0E040155
:10244800040105210401056FFF0E040104010621A2
:102458000401066F232A040104010651800A800F33
:102468000BE1010E0401055D07E1860E0401045D20
:1024780003E1A00E0401035DD8B001D001D0D1D78B
:102488001AD0F00E04010401032504010401036FAE
:10249800D80E0401040104210401046FFF0E040195
:1024A800040105210401056FFF0E04010401062142
:1024B8000401066F242A040104010651800A800FD2
:1024C8000BE1000E0401055D07E1270E0401045D20
:1024D80003E1100E0401035DD8B001D001D0D1D7BB
:1024E8001AD0180E04010401032504010401036F26
:1024F800FC0E0401040104210401046FFF0E040111
:10250800040105210401056FFF0E040104010621E1
:102518000401066F252A040104010651800A800F70
:102528000BE1000E0401055D07E1030E0401045DE3
:1025380003E1E80E0401035DD8B001D001D0D1D782
:102548001AD09C0E04010401032504010401036F41
:10255800FF0E0401040104210401046FFF0E0401AD
:10256800040105210401056FFF0E04010401062181
:102578000401066F202A040104010651800A800F15
:102588000BE1000E0401055D07E1000E0401045D86
:1025980003E1640E0401035DD8B001D001D0D1D7A6
:1025A8001AD0F60E04010401032504010401036F87
:1025B800FF0E0401040104210401046FFF0E04014D
:1025C800040105210401056FFF0E04010401062121
:1025D8000401066F272A040104010651800A800FAE
:1025E8000BE1000E0401055D07E1000E0401045D26
:1025F80003E10A0E0401035DD8B001D001D0D1D7A0
:102608001AD0FF0E04010401032504010401036F1D
:10261800FF0E0401040104210401046FFF0E0401EC
:10262800040105210401056FFF0E040104010621C0
:102638000401066F262A040104010651800A800F4E
:102648000BE1000E0401055D07E1000E0401045DC5
:1026580003E1010E0401035DD8B001D001D0D1D748
:1026680000D01200000E04010401026F000E0401E4
:10267800036F0401046F000E04010401016F0401DB
:1026880004510401046F000E04010401016F0401E8
:102698000451310E04010401016501D001D001D0BB
:1026A8006AD0040104010151020D0101640EF324F2
:1026B800E96EEA6A0101010EEA22000EEE6E000ED2
:1026C800ED6E040104010151020D0201640EF324B0
:1026D800E96EEA6A0201020EEA22000EEE6E000EB0
:1026E800ED6E040104010151020D0101000EF324F5
:1026F800E96EEA6A0101010EEA22000EEE6E000E92
:10270800ED6E040104010151020D0301000EF324D2
:10271800E96EEA6A0301030EEA22000EEE6E000E6D
:10272800ED6E040104010151020D0201000EF324B3
:10273800E96EEA6A0201020EEA22000EEE6E000E4F
:10274800ED6E040104010151020D00014B0EF3244A
:10275800E96EEA6A0001000EEA22000EEE6E000E33
:10276800ED6E04010401012B310E04010401016521
:1027780001D001D096D737EC30F004000FEC2BF0E5
:1027880085EC3CF00400000E04010401056F000E06
:102798000401066F3BEC3CF00A6E020E04010401D2
:1027A800056F000E0401066F3BEC3CF00401046F5A
:1027B800010E04010401056F000E0401066F3BECD5
:1027C8003CF0186E04010451176E030E0401040155
:1027D800056F000E0401066F3BEC3CF02F6E040EF3
:1027E80004010401056F000E0401066F3BEC3CF088
:1027F800306E050E04010401056F000E0401066F1A
:102808003BEC3CF0086E060E04010401056F000E57
:102818000401066F3BEC3CF0296E070E040104012D
:10282800056F000E0401066F3BEC3CF0026E080ECB
:1028380004010401056F000E0401066F3BEC3CF037
:10284800016E090E04010401056F000E0401066FF4
:102858003BEC3CF00401046F040104513E6E3F6AF6
:102868002F04D8A401D001D03ED0CA0E040104011F
:10287800106F840E0401116F140E0401126F000E04
:102888000401136F040117C00CF4040118C00DF4FF
:10289800040104010E6B04010F6B4CEC38F00CC4FE
:1028A8000CF40DC40DF40EC40EF40FC40FF40A504A
:1028B80029020401F3CF10F40401F4CF11F4040148
:1028C800000E040111BFFF0E0401126F0401136F03
:1028D80056EC26F00CC4B6F00DC4B7F00EC4B8F030
:1028E8000FC4B9F03DD0650E04010401106F660EE7
:1028F8000401116F0D0E0401126F000E0401136F15
:10290800040117C00CF4040118C00DF404010401FB
:102918000E6B04010F6B4CEC38F00CC40CF40DC4B6
:102928000DF40EC40EF40FC40FF40A50290204016A
:10293800F3CF10F40401F4CF11F40401000E0401E4
:1029480011BFFF0E0401126F0401136F56EC26F03D
:102958000CC4B6F00DC4B7F00EC4B8F00FC4B9F08B
:102968000401046F000E04010401016F0401045105
:1029780022D0050E04010401076F000E0401086F40
:1029880054EC3CF00401046F010E04010401056FCE
:102998000401045100EC34F0040104010551040160
:1029A8000401022704010401065104010401032360
:1029B80004010401012B040104010151140AD8A4E3
:1029C80001D001D0D6D70401040101C407F40401E1
:1029D8000401086B02C405F403C406F449EC37F09B
:1029E8000401040105C40CF40401040106C40DF437
:1029F800040104010E6B04010F6BFA0E04010401BB
:102A0800106F000E0401116F000E0401126F000E0A
:102A18000401136F4CEC38F00CC40CF40DC40DF425
:102A28000EC40EF40FC40FF4FF0E04010401106F5E
:102A3800030E0401116F000E0401126F000E040151
:102A4800136F56EC26F00A0E040104010C250B6ED8
:102A5800000E040104010D210C6E0BC0DCF00CC04B
:102A6800DDF082820401046F010E066E0401045138
:102A7800D58E040000D012000401016F400E04013D
:102A880004010D6F04010151D3EC3CF00401016F06
:102A9800000E040104010C6F04010151DAEC3CF052
:102AA8000401016F1F0E040104010C6F04010151A0
:102AB800DAEC3CF00401016F000E040104010C6F14
:102AC80004010151DAEC3CF00401016F000E04012D
:102AD80004010C6F04010151DAEC3CF00401016FB0
:102AE800000E040104010C6F04010151DAEC3CF002
:102AF8000401016F000E040104010C6F040101516F
:102B0800DAEC3CF00401016F1F0E040104010C6FA4
:102B180004010151DAEC3CF00401016F000E0401DC
:102B280004010C6F04010151DAEC3CF00401016F5F
:102B3800000E040104010C6F04010151DAEC3CF0B1
:102B48000401016F1F0E040104010C6F04010151FF
:102B5800DAEC3CF00401016F000E040104010C6F73
:102B680004010151DAEC3CF00401016F100E04017C
:102B780004010C6F04010151DAEC3CF00401016F0F
:102B8800100E040104010C6F04010151DAEC3CF051
:102B98000401016F000E040104010C6F04010151CE
:102BA800DAEC3CF00401016F1F0E040104010C6F04
:102BB80004010151DAEC3CF00401016F000E04013C
:102BC80004010C6F04010151DAEC3CF00401016FBF
:102BD800000E040104010C6F04010151DAEC3CF011
:102BE8000401016F1F0E040104010C6F040101515F
:102BF800DAEC3CF00401016F000E040104010C6FD3
:102C080004010151DAEC3CF00401016F180E0401D3
:102C180004010C6F04010151DAEC3CF00401016F6E
:102C2800180E040104010C6F04010151DAEC3CF0A8
:102C38000401016F000E040104010C6F040101512D
:102C4800DAEC3CF00401016F1F0E040104010C6F63
:102C580004010151DAEC3CF00401016F000E04019B
:102C680004010C6F04010151DAEC3CF00401016F1E
:102C7800000E040104010C6F04010151DAEC3CF070
:102C88000401016F1F0E040104010C6F04010151BE
:102C9800DAEC3CF00401016F000E040104010C6F32
:102CA80004010151DAEC3CF00401016F1C0E04012F
:102CB80004010C6F04010151DAEC3CF00401016FCE
:102CC8001C0E040104010C6F04010151DAEC3CF004
:102CD8000401016F000E040104010C6F040101518D
:102CE800DAEC3CF00401016F1F0E040104010C6FC3
:102CF80004010151DAEC3CF00401016F000E0401FB
:102D080004010C6F04010151DAEC3CF00401016F7D
:102D1800000E040104010C6F04010151DAEC3CF0CF
:102D28000401016F1F0E040104010C6F040101511D
:102D3800DAEC3CF00401016F000E040104010C6F91
:102D480004010151DAEC3CF00401016F1E0E04018C
:102D580004010C6F04010151DAEC3CF00401016F2D
:102D68001E0E040104010C6F04010151DAEC3CF061
:102D78000401016F000E040104010C6F04010151EC
:102D8800DAEC3CF00401016F1F0E040104010C6F22
:102D980004010151DAEC3CF00401016F000E04015A
:102DA80004010C6F04010151DAEC3CF00401016FDD
:102DB800000E040104010C6F04010151DAEC3CF02F
:102DC8000401016F1F0E040104010C6F040101517D
:102DD800DAEC3CF00401016F000E040104010C6FF1
:102DE80004010151DAEC3CF00401016F1F0E0401EB
:102DF80004010C6F04010151DAEC3CF00401016F8D
:102E08001F0E040104010C6F04010151DAEC3CF0BF
:102E18000401016F000E040104010C6F040101514B
:102E2800DAEC3CF00401016F1F0E040104010C6F81
:102E380004010151DAEC3CF00401016F000E0401B9
:102E480004010C6F04010151DAEC3CF000D01200CF
:102E58000401076F000E266E040107510401076F75
:102E6800000E276E040107510401076F000E206E43
:102E7800040107510401076F000E256E0401075174
:102E88000401076F000E246E040107510401076F47
:102E9800000E236E040107510401076F000E286E0F
:102EA800040107510401076F000E216E0401075148
:102EB8000401076F000E226E040107511AD0000E9C
:102EC80004010401032504010401036F1F0E04011A
:102ED800040104210401046F0A0E04010401052100
:102EE8000401056FFA0E0401040106210401066FAE
:102EF800222A040104010651800A7B0F0BE1F50E1A
:102F08000401055D07E1E10E0401045D03E1000E23
:102F18000401035DD8B001D001D0D1D71AD0800EFA
:102F280004010401032504010401036F690E04016F
:102F3800040104210401046F670E04010401052142
:102F48000401056FFF0E0401040106210401066F48
:102F5800212A040104010651800A800F0BE1980E12
:102F68000401055D07E1960E0401045D03E1800E8E
:102F78000401035DD8B001D001D0D1D71AD0C00E5A
:102F880004010401032504010401036FBD0E0401BB
:102F9800040104210401046FF00E04010401052159
:102FA8000401056FFF0E0401040106210401066FE8
:102FB800282A040104010651800A800F0BE10F0E34
:102FC8000401055D07E1420E0401045D03E1400EC2
:102FD8000401035DD8B001D001D0D1D71AD0600E5A
:102FE80004010401032504010401036F790E04019F
:102FF800040104210401046FFE0E040104010521EB
:103008000401056FFF0E0401040106210401066F87
:10301800232A040104010651800A800F0BE1010EE6
:103028000401055D07E1860E0401045D03E1A00EBD
:103038000401035DD8B001D001D0D1D71AD0F00E69
:1030480004010401032504010401036FD80E0401DF
:10305800040104210401046FFF0E04010401052189
:103068000401056FFF0E0401040106210401066F27
:10307800242A040104010651800A800F0BE1000E86
:103088000401055D07E1270E0401045D03E1100E4C
:103098000401035DD8B001D001D0D1D71AD0180EE1
:1030A80004010401032504010401036FFC0E04015B
:1030B800040104210401046FFF0E04010401052129
:1030C8000401056FFF0E0401040106210401066FC7
:1030D800252A040104010651800A800F0BE1000E25
:1030E8000401055D07E1030E0401045D03E1E80E38
:1030F8000401035DD8B001D001D0D1D71AD09C0EFD
:1031080004010401032504010401036FFF0E0401F7
:10311800040104210401046FFF0E040104010521C8
:103128000401056FFF0E0401040106210401066F66
:10313800202A040104010651800A800F0BE1000EC9
:103148000401055D07E1000E0401045D03E1640E5E
:103158000401035DD8B001D001D0D1D71AD0F60E42
:1031680004010401032504010401036FFF0E040197
:10317800040104210401046FFF0E04010401052168
:103188000401056FFF0E0401040106210401066F06
:10319800272A040104010651800A800F0BE1000E62
:1031A8000401055D07E1000E0401045D03E10A0E58
:1031B8000401035DD8B001D001D0D1D71AD0FF0ED9
:1031C80004010401032504010401036FFF0E040137
:1031D800040104210401046FFF0E04010401052108
:1031E8000401056FFF0E0401040106210401066FA6
:1031F800262A040104010651800A800F0BE1000E03
:103208000401055D07E1000E0401045D03E1010E00
:103218000401035DD8B001D001D0D1D700D012008D
:1032280000D004015B0E04010401606F0401040E68
:103238000401616F0401510E040104015E6F040171
:10324800040E04015F6FA5EC37F004010401596F07
:10325800040104015B6701D001D007D054C451F4C4
:1032680055C452F456C453F477D104015A0E0401DC
:103278000401606F0401040E0401616F0401540E1F
:10328800040104015E6F0401040E04015F6FA5ECE4
:1032980037F004010401576F040104015A51D8B4EE
:1032A80001D001D032D104015C6F060E0401040183
:1032B800586F04015C51040104015A5104010401CE
:1032C8005B6101D001D04FD0040104015B510401BE
:1032D80004015A5D04015C6F190E04015C5DD8A0FD
:1032E80001D001D011D0000E04010401516F000E6D
:1032F80004010401526F000E04010401536F5AC403
:103308005BF457C459F42ED00401D8900401543703
:103318000401553704015637040104015A07040112
:1033280004015A51040104015B19D8B401D001D039
:1033380004D004010401582FE7D70BD00401D8901A
:1033480004015333040152330401513304010401CD
:103358005B2B040104015A51040104015B6301D091
:1033680001D0ECD754D0040104015B5104010401DD
:103378005A19D8B401D001D04AD0040104015A51D5
:10338800040104015B5D04015C6F190E04015C5DBE
:10339800D8A001D001D00DD0000E04010401546F53
:1033A800000E04010401556F000E04010401566F5C
:1033B8002ED00401D890040151370401523704017A
:1033C8005337040104015B07040104015A51040145
:1033D80004015B19D8B401D001D004D00401040160
:1033E800582FE7D70BD00401D890040156330401B5
:1033F800553304015433040104015A2B0401040118
:103408005A51040104015B6301D001D0ECD70401D7
:1034180004015951D8B401D001D018D0FF0E0401CD
:103428000401511BFF0E04010401521BFF0E04018D
:103438000401531B010E040104015127000E04016D
:1034480004015223000E0401040153230401040162
:103458005751D8B401D001D018D0FF0E040104018F
:10346800541BFF0E04010401551BFF0E0401040147
:10347800561B010E040104015427000E0401040127
:103488005523000E04010401562304015C6F000E4D
:1034980004010401596F04015C51040104015451F1
:1034A80004010401512704010401555104010401D8
:1034B8005223040104015651040104015323040159
:1034C800040153AF01D001D020D0FF0E0401040144
:1034D800511BFF0E04010401521BFF0E04010401DD
:1034E800531B010E040104015127000E04010401BD
:1034F8005223000E04010401532304015C6F010EE2
:1035080004010401596F04015C515BC460F40401B7
:10351800510E040104015E6F0401040E04015F6F83
:1035280098EC2FF0040104015951D8B401D001D00E
:103538000CD0000E04010401511B000E040104010B
:10354800521B800E04010401531B51C451F452C490
:1035580052F453C453F400D0120004010B6F000E50
:10356800040104010A6F04010B51640E04010401F3
:10357800106F000E0401116F000E0401126F000E8F
:103588000401136F01C40CF402C40DF403C40EF457
:1035980004C40FF44CEC38F00CC40CF40DC40DF456
:1035A8000EC40EF40FC40FF405C410F406C411F4CD
:1035B80007C412F408C413F456EC26F00CC401F442
:1035C8000DC402F40EC403F40FC404F4500E040135
:1035D8000401106F000E0401116F000E0401126F38
:1035E800000E0401136F01C40CF402C40DF403C4EB
:1035F8000EF404C40FF44CEC38F00CC40CF40DC4F5
:103608000DF40EC40EF40FC40FF4640E040104018B
:10361800106F000E0401116F000E0401126F000EEE
:103628000401136F56EC26F00CC401F40DC402F427
:103638000EC403F40FC404F4BBEC3CF004010B6F9C
:10364800000E04010401096F04010B510F0E04015F
:103658000401096501D001D001D000D10401045151
:10366800011102110311D8A401D001D008D004011E
:103678000B6F000E040104010A6F04010B510401D1
:103688000105021103110411D8A401D001D021D0E1
:10369800FF0E04010401012504010401016FFF0E5E
:1036A8000401040102210401026FFF0E0401040158
:1036B80003210401036FFF0E040104010421040126
:1036C800046F04010B6F010E040104010A6F040169
:1036D8000B5104010151020A021103110411D8A46B
:1036E80001D001D021D0FE0E0401040101250401FE
:1036F8000401016FFF0E0401040102210401026F9D
:10370800FF0E0401040103210401036FFF0E0401ED
:10371800040104210401046F04010B6F020E04016B
:1037280004010A6F04010B5104010151030A02113B
:1037380003110411D8A401D001D021D0FD0E040139
:103748000401012504010401016FFF0E04010401B5
:1037580002210401026FFF0E040104010321040188
:10376800036FFF0E0401040104210401046F040126
:103778000B6F030E040104010A6F04010B510401CD
:103788000151040A021103110411D8A401D001D077
:1037980021D0FC0E04010401012504010401016F7C
:1037A800FF0E0401040102210401026FFF0E04014F
:1037B800040103210401036FFF0E04010401042125
:1037C8000401046F04010B6F040E040104010A6F65
:1037D80004010B51040104010451800A800F0BE11C
:1037E800000E0401035D07E1000E0401025D03E120
:1037F800050E0401015DD8A001D001D021D0FB0E37
:1038080004010401012504010401016FFF0E0401F4
:10381800040102210401026FFF0E040104010321C7
:103828000401036FFF0E0401040104210401046F65
:1038380004010B6F050E040104010A6F04010B510A
:103848000AC40CF4DAEC3CF004010401092B0F0E55
:1038580004010401096501D001D000D700D012008D
:10386800C7EC3CF0BE0E04010401036FFF0E040117
:10387800046FDFEC3BF0040140C003F4040141C0D5
:1038880004F404010401056B0401066B2CEC17F029
:10389800E80E405C030E4158D8B001D001D028D0C2
:1038A800C20E04010401036FFE0E0401046FDFEC75
:1038B8003BF02050300F040104010C6FDAEC3CF0AF
:1038C800820E04010401036FFF0E0401046FDFEC94
:1038D8003BF02750300F040104010C6FDAEC3CF088
:1038E8002650300F040104010C6FDAEC3CF025D0AF
:1038F8002550300F040104010C6FDAEC3CF0205025
:10390800300F040104010C6FDAEC3CF0820E040164
:103918000401036FFF0E0401046FDFEC3BF0275036
:10392800300F040104010C6FDAEC3CF02650300F24
:10393800040104010C6FDAEC3CF0E50E040104010B
:10394800036FFF0E0401046FDFEC3BF0040144C079
:1039580003F4040145C004F404010401056B0401E7
:10396800066B76EC10F02050300F040104010C6F48
:10397800DAEC3CF02750300F040104010C6FDAEC4C
:103988003CF02650300F040104010C6FDAEC3CF0D7
:10399800FD0E04010401036FFF0E0401046FDFEC48
:1039A8003BF0BBEC3CF0CB0E04010401036FFF0EAF
:1039B8000401046FDFEC3BF0E10E04010401036F26
:1039C800000E0401046FD8EC09F00401016F010E28
:1039D80004010401046F040101510401026F020E85
:1039E80004010401036F04010251C2EC3AF004011E
:1039F800016F070E040104010C6F04010151DAEC98
:103A08003CF0F20E04010401036FFF0E0401046F81
:103A1800DFEC3BF0040142C003F4040143C004F4AA
:103A280004010401056B0401066B2CEC17F0E80E89
:103A3800425C030E4358D8B001D001D028D0C20E42
:103A480004010401036FFE0E0401046FDFEC3BF078
:103A58002050300F040104010C6FDAEC3CF0820EA8
:103A680004010401036FFF0E0401046FDFEC3BF057
:103A78002750300F040104010C6FDAEC3CF026509B
:103A8800300F040104010C6FDAEC3CF025D025500E
:103A9800300F040104010C6FDAEC3CF02050300FB9
:103AA800040104010C6FDAEC3CF0820E04010401FD
:103AB800036FFF0E0401046FDFEC3BF02750300F5B
:103AC800040104010C6FDAEC3CF02650300F0401BD
:103AD80004010C6FDAEC3CF0E50E04010401036FFD
:103AE800FF0E0401046FDFEC3BF0040146C003F451
:103AF800040147C004F404010401056B0401066BCA
:103B080076EC10F02050300F040104010C6FDAEC51
:103B18003CF02750300F040104010C6FDAEC3CF044
:103B28002650300F040104010C6FDAEC3CF0FD0E56
:103B380004010401036FFF0E0401046FDFEC3BF086
:103B480000D01200B8EC3BF0D8A001D001D006D0CC
:103B5800010E2F6001D001D001D02F2A1CEC3BF0C0
:103B6800D8A001D001D006D02F50D8B401D001D0B0
:103B780001D02F0691EC3BF0D8A001D001D012D093
:103B8800030E04010401056F000E0401066F3BECEF
:103B98003CF02F6E0401016F170E00010001E66F63
:103BA8000401015143EC3BF0D8A001D001D013D05F
:103BB8002FC005F4030E04010401036F000E040175
:103BC800046F1EEC3CF00401016F170E00010001A8
:103BD800E66F04010151C7EC3CF0D10E0401040169
:103BE800036FFE0E0401046FDFEC3BF0ED0E0401E1
:103BF8000401036F000E0401046FD8EC09F00401FE
:103C0800016F0C0E04010401046F04010151040149
:103C1800026F010E04010401036F04010251C2EC9A
:103C28003AF00401016F060E040104010C6F04014F
:103C38000151DAEC3CF0E10E04010401036FFF0EC0
:103C48000401046FDFEC3BF0BBEC3CF02F04D8A47C
:103C580001D001D038D0A70E04010401036FFF0E74
:103C68000401046FDFEC3BF0C10E04010401036F93
:103C7800000E0401046FD8EC09F00401016F050E71
:103C880004010401046F040101510401026F020ED2
:103C980004010401036F04010251C2EC3AF004016B
:103CA800016F070E040104010C6F04010151DAECE5
:103CB8003CF0320E04010401036FFF0E0401046F8F
:103CC800DFEC3BF009D0500E04010401036FFD0E38
:103CD8000401046FDFEC3BF02F04D8A401D001D01D
:103CE8003ED0CA0E04010401106F840E0401116F46
:103CF800140E0401126F000E0401136F040117C0A3
:103D08000CF4040118C00DF4040104010E6B040145
:103D18000F6B4CEC38F00CC40CF40DC40DF40EC44D
:103D28000EF40FC40FF40A5029020401F3CF10F463
:103D38000401F4CF11F40401000E040111BFFF0EB9
:103D48000401126F0401136F56EC26F00CC4B6F090
:103D58000DC4B7F00EC4B8F00FC4B9F03DD0650E6D
:103D680004010401106F660E0401116F0D0E0401A9
:103D7800126F000E0401136F040117C00CF4040144
:103D880018C00DF4040104010E6B04010F6B4CEC18
:103D980038F00CC40CF40DC40DF40EC40EF40FC4AA
:103DA8000FF40A5029020401F3CF10F40401F4CFF0
:103DB80011F40401000E040111BFFF0E0401126F7B
:103DC8000401136F56EC26F00CC4B6F00DC4B7F01E
:103DD8000EC4B8F00FC4B9F000D01200B8EC3BF034
:103DE800D8B001D001D006D030EC3AF0D8A001D03C
:103DF80001D007D0FA0E296001D001D002D0050EFB
:103E080029261CEC3BF0D8B001D001D006D061ECDB
:103E18003AF0D8A001D001D007D0050E296401D00E
:103E280001D002D0050E295E91EC3BF0D8A001D05C
:103E380001D012D0060E04010401056F000E040122
:103E4800066F3BEC3CF0296E0401016F1A0E00016D
:103E58000001E66F0401015143EC3BF0D8A001D00A
:103E680001D013D029C005F4060E04010401036F24
:103E7800000E0401046F1EEC3CF00401016F1A0EE1
:103E880000010001E66F04010151C7EC3CF02E0E61
:103E980004010401036FFD0E0401046FDFEC3BF025
:103EA800BBEC3CF0D90E04010401036FFF0E0401C2
:103EB800046FDFEC3BF0E30E04010401036F000E16
:103EC8000401046FD8EC09F00401016F030E04012A
:103ED8000401046F040101510401026F020E040180
:103EE8000401036F04010251C2EC3AF00401016FAE
:103EF800060E040104010C6F04010151DAEC3CF0D8
:103F0800AD0E04010401036FFF0E0401046FDFEC22
:103F18003BF0295004010401036F0401046B040100
:103F2800056B0401066B76EC10F02050300F04018D
:103F380004010C6FDAEC3CF02750300F0401040147
:103F48000C6FDAEC3CF02650300F040104010C6FC2
:103F5800DAEC3CF0B90E04010401036FFF0E040112
:103F6800046FDFEC3BF02F04D8A401D001D03ED081
:103F7800CA0E04010401106F840E0401116F140E9F
:103F88000401126F000E0401136F040117C00CF432
:103F9800040118C00DF4040104010E6B04010F6B39
:103FA8004CEC38F00CC40CF40DC40DF40EC40EF433
:103FB8000FC40FF40A5029020401F3CF10F40401CE
:103FC800F4CF11F40401000E040111BFFF0E040127
:103FD800126F0401136F56EC26F00CC4B6F00DC432
:103FE800B7F00EC4B8F00FC4B9F03DD0650E0401A7
:103FF8000401106F660E0401116F0D0E0401126F9B
:10400800000E0401136F040117C00CF4040118C05A
:104018000DF4040104010E6B04010F6B4CEC38F035
:104028000CC40CF40DC40DF40EC40EF40FC40FF43C
:104038000A5029020401F3CF10F40401F4CF11F45B
:104048000401000E040111BFFF0E0401126F0401E8
:10405800136F56EC26F00CC4B6F00DC4B7F00EC4BE
:10406800B8F00FC4B9F000D01200B8EC3BF0D8B0EB
:1040780001D001D006D030EC3AF0D8A001D001D060
:104088000CD0A00E175C0F0E1858D8B001D001D074
:1040980004D0050E1726000E18221CEC3BF0D8B0F1
:1040A80001D001D006D061EC3AF0D8A001D001D0FF
:1040B8000CD0060E175C000E1858D8A001D001D0FD
:1040C80004D0050E175E000E185A91EC3BF0D8A0EC
:1040D80001D001D020D0020E04010401056F000EAA
:1040E8000401066F3BEC3CF00401016F010E040172
:1040F8000401056F000E0401066F3BEC3CF0186EDE
:1041080004010151176E0401016F160E0001000130
:10411800E66F0401015143EC3BF0D8A001D001D077
:1041280020D0185004010401056F010E0401040198
:10413800036F000E0401046F1EEC3CF017C005F479
:10414800020E04010401036F000E0401046F1EEC4B
:104158003CF00401016F160E00010001E66F040136
:104168000151C7EC3CF0710E04010401036FFE0E0F
:104178000401046FDFEC3BF0BBEC3CF05D0E040186
:104188000401036FFF0E0401046FDFEC3BF0040130
:1041980017C003F4040118C004F404010401056BFA
:1041A8000401066B76EC10F02550300F0401040171
:1041B8000C6FDAEC3CF02050300F040104010C6F56
:1041C800DAEC3CF02750300F040104010C6FDAECF4
:1041D8003CF02650300F040104010C6FDAEC3CF07F
:1041E800DD0E04010401036FFF0E0401046FDFEC10
:1041F8003BF02F04D8A401D001D03ED0CA0E040150
:104208000401106F840E0401116F140E0401126F63
:10421800000E0401136F040117C00CF4040118C048
:104228000DF4040104010E6B04010F6B4CEC38F023
:104238000CC40CF40DC40DF40EC40EF40FC40FF42A
:104248000A5029020401F3CF10F40401F4CF11F449
:104258000401000E040111BFFF0E0401126F0401D6
:10426800136F56EC26F00CC4B6F00DC4B7F00EC4AC
:10427800B8F00FC4B9F03DD0650E04010401106F09
:10428800660E0401116F0D0E0401126F000E040179
:10429800136F040117C00CF4040118C00DF40401D5
:1042A80004010E6B04010F6B4CEC38F00CC40CF4D9
:1042B8000DC40DF40EC40EF40FC40FF40A502902F5
:1042C8000401F3CF10F40401F4CF11F40401000E3B
:1042D800040111BFFF0E0401126F0401136F56ECA5
:1042E80026F00CC4B6F00DC4B7F00EC4B8F00FC475
:1042F800B9F000D01200C7EC3CF0040140C003F450
:10430800040141C004F404010401056B0401066BB7
:104318002CEC17F0E80E405C030E4158D8B001D0E1
:1043280001D028D0C20E04010401036FFE0E04015F
:10433800046FDFEC3BF02050300F040104010C6FD8
:10434800DAEC3CF0820E04010401036FFF0E040155
:10435800046FDFEC3BF02750300F040104010C6FB1
:10436800DAEC3CF02650300F040104010C6FDAEC53
:104378003CF025D02550300F040104010C6FDAEC15
:104388003CF02050300F040104010C6FDAEC3CF0D3
:10439800820E04010401036FFF0E0401046FDFECB9
:1043A8003BF02750300F040104010C6FDAEC3CF0AD
:1043B8002650300F040104010C6FDAEC3CF0E50ED6
:1043C80004010401036FFF0E0401046FDFEC3BF0EE
:1043D80000010401CAC003F400010401CBC004F4C5
:1043E80004010401056B0401066B76EC10F02450FF
:1043F800300F040104010C6FDAEC3CF02550300F4B
:10440800040104010C6FDAEC3CF02050300F040179
:1044180004010C6FDAEC3CF02750300F0401040162
:104428000C6FDAEC3CF02650300F040104010C6FDD
:10443800DAEC3CF0D10E04010401036FFF0E040115
:10444800046FDFEC3BF0BBEC3CF000010401DEC084
:1044580003F400010401DFC004F404010401056B46
:104468000401066B76EC10F02550300F04010401AE
:104478000C6FDAEC3CF02050300F040104010C6F93
:10448800DAEC3CF02750300F040104010C6FDAEC31
:104498003CF02650300F040104010C6FDAEC3CF0BC
:1044A800930E04010401036FFF0E0401046FDFEC97
:1044B8003BF000010401BAC003F400010401BBC0D1
:1044C80004F404010401056B0401066B2CEC17F0DD
:1044D8002550300F040104010C6FDAEC3CF0820E19
:1044E80004010401036FFF0E0401046FDFEC3BF0CD
:1044F8002050300F040104010C6FDAEC3CF0275017
:10450800300F040104010C6FDAEC3CF02650300F38
:10451800040104010C6FDAEC3CF0F90E040104010B
:10452800036FFF0E0401046FDFEC3BF000D01200B4
:10453800B8EC3BF0D8A001D001D006D0040E0A6038
:1045480001D001D001D00A2A0A50030AD8A401D008
:1045580001D006D00401016F040E0A6E0401015156
:104568001CEC3BF0D8A001D001D006D0010E0A64A3
:1045780001D001D001D00A060A50030AD8A401D0FC
:1045880001D006D00401016F020E0A6E0401015128
:1045980091EC3BF0D8A001D001D012D0000E04015C
:1045A8000401056F000E0401066F3BEC3CF00A6E37
:1045B8000401016F150E00010001E66F04010151AD
:1045C80043EC3BF0D8A001D001D013D00AC005F4C9
:1045D800000E04010401036F000E0401046F1EECB9
:1045E8003CF00401016F150E00010001E66F0401A3
:1045F8000151C7EC3CF0E90E04010401036FFD0E04
:104608000401046FDFEC3BF0BBEC3CF0A40E0401AA
:104618000401036FFE0E0401046FDFEC3BF00A5047
:1046280004010401036F0401046B0401056B040118
:10463800066B76EC10F02650300F040104010C6F65
:10464800DAEC3CF02F04D8A401D001D03ED0CA0E39
:1046580004010401106F840E0401116F140E04018B
:10466800126F000E0401136F040117C00CF404014B
:1046780018C00DF4040104010E6B04010F6B4CEC1F
:1046880038F00CC40CF40DC40DF40EC40EF40FC4B1
:104698000FF40A5029020401F3CF10F40401F4CFF7
:1046A80011F40401000E040111BFFF0E0401126F82
:1046B8000401136F56EC26F00CC4B6F00DC4B7F025
:1046C8000EC4B8F00FC4B9F03DD0650E0401040162
:1046D800106F660E0401116F0D0E0401126F000EAB
:1046E8000401136F040117C00CF4040118C00DF481
:1046F800040104010E6B04010F6B4CEC38F00CC480
:104708000CF40DC40DF40EC40EF40FC40FF40A50CB
:1047180029020401F3CF10F40401F4CF11F40401C9
:10472800000E040111BFFF0E0401126F0401136F84
:1047380056EC26F00CC4B6F00DC4B7F00EC4B8F0B1
:104748000FC4B9F000D01200C7EC3CF0A10E040170
:104758000401036FFF0E0401046FDFEC3BF0E30E6E
:1047680004010401036F000E0401046FD8EC09F082
:104778000401016F050E04010401046F04010151D5
:104788000401026F010E04010401036F04010251C8
:10479800C2EC3AF00401016F060E040104010C6F2B
:1047A80004010151DAEC3CF0EF0E04010401036F3F
:1047B800FF0E0401046FDFEC3BF000010401CAC0E6
:1047C80003F400010401CBC004F404010401056BE7
:1047D8000401066B76EC10F02450300F040104013C
:1047E8000C6FDAEC3CF02550300F040104010C6F1B
:1047F800DAEC3CF02050300F040104010C6FDAECC5
:104808003CF02750300F040104010C6FDAEC3CF047
:104818002650300F040104010C6FDAEC3CF0D10E85
:1048280004010401036FFF0E0401046FDFEC3BF089
:10483800BBEC3CF0CB0E04010401036FFF0E040136
:10484800046FDFEC3BF0E10E04010401036F000E7E
:104858000401046FD8EC09F00401016F010E040192
:104868000401046F040101510401026F020E0401E6
:104878000401036F04010251C2EC3AF00401016F14
:10488800070E040104010C6F04010151DAEC3CF03D
:104898008C0E04010401036FFF0E0401046FDFECAA
:1048A8003BF000010401CCC003F400010401CDC0B9
:1048B80004F404010401056B0401066B76EC10F0A6
:1048C8002450300F040104010C6FDAEC3CF0255041
:1048D800300F040104010C6FDAEC3CF02050300F6B
:1048E800040104010C6FDAEC3CF02750300F04018E
:1048F80004010C6FDAEC3CF02650300F040104017F
:104908000C6FDAEC3CF0D10E04010401036FFF0ECA
:104918000401046FDFEC3BF000D0120004015F6F6C
:10492800000E040104015A6F04015F5104010401DF
:1049380058AF01D001D018D004010401581F040158
:10494800571F0401561F0401556D000E040156231C
:10495800040157230401582304015F6F010E040169
:1049680004015A6F04015F510401040154AF01D0DE
:1049780001D014D004010401541F0401531F040181
:10498800521F0401516D000E0401522304015323E8
:1049980004015423010E040104015A1B000E0401F2
:1049A80004015B6F000E04015C6F000E04015D6F73
:1049B800000E04015E6F040158515511561157112C
:1049C800D8B401D001D06BD004015F6F010E04018F
:1049D8000401596F04015F510DD00401D8900401FE
:1049E8005537040156370401573704015837040175
:1049F8000401592B0401040158AF01D001D0EDD7AF
:104A08000401D89004015B3704015C3704015D3769
:104A180004015E3704010401555104010401515D8C
:104A2800040104015651040104015259040104010E
:104A38005751040104015359040104015851040158
:104A480004015459D8A001D001D01BD0040104019D
:104A5800555104010401515F040104015651040138
:104A68000401525B04010401575104010401535B22
:104A780004010401585104010401545B04010401B8
:104A88005B810401D89004015833040157330401B1
:104A980056330401553304010401592FB1D70401D9
:104AA80004015A51D8B401D001D010D00401040136
:104AB8005E1F04015D1F04015C1F04015B6D000E95
:104AC80004015C2304015D2304015E235BC451F4EB
:104AD8005CC452F45DC453F45EC454F400D01200B4
:104AE8000401896F000E04010401846F04018951D7
:104AF8000401040182AF01D001D018D004010401DF
:104B0800821F0401811F0401801F04017F6D000EB4
:104B18000401802304018123040182230401896F95
:104B2800010E04010401846F040189510401040188
:104B38007EAF01D001D014D0040104017E1F04010E
:104B48007D1F04017C1F04017B6D000E04017C2382
:104B580004017D2304017E23010E04010401841B4A
:104B6800000E04010401856F000E0401866F000E1B
:104B78000401876F000E0401886F040182517F11C0
:104B880080118111D8B401D001D06BD00401896F94
:104B9800010E04010401836F040189510DD0040141
:104BA800D89004017F37040180370401813704015C
:104BB800823704010401832B0401040182AF01D070
:104BC80001D0EDD70401D890040185370401863758
:104BD8000401873704018837040104017F51040167
:104BE80004017B5D040104018051040104017C5926
:104BF800040104018151040104017D5904010401E7
:104C08008251040104017E59D8A001D001D01BD0E3
:104C1800040104017F51040104017B5F04010401C4
:104C28008051040104017C5B0401040181510401E9
:104C380004017D5B040104018251040104017E5BCF
:104C48000401040185810401D89004018233040120
:104C580081330401803304017F3304010401832F6D
:104C6800B1D7040104018451D8B401D001D010D0C7
:104C780004010401881F0401871F0401861F040121
:104C8800856D000E0401862304018723040188230F
:104C980085C47BF486C47CF487C47DF488C47EF420
:104CA80000D0120004011A6F000E04010401156FF0
:104CB80004011A510401040113AF01D001D018D026
:104CC80004010401131F0401121F0401111F040130
:104CD800106D000E04011123040112230401132393
:104CE80004011A6F010E04010401156F04011A5121
:104CF800040104010FAF01D001D014D00401040154
:104D08000F1F04010E1F04010D1F04010C6D000E7E
:104D180004010D2304010E2304010F23010E0401D5
:104D28000401151B000E04010401166F000E040196
:104D3800176F000E0401186F000E0401196F0401AB
:104D48001351101111111211D8B401D001D06BD028
:104D580004011A6F010E04010401146F04011A51B1
:104D68000DD00401D8900401103704011137040153
:104D780012370401133704010401142B0401040140
:104D880013AF01D001D0EDD70401D8900401163734
:104D98000401173704011837040119370401040105
:104DA8001051040104010C5D0401040111510401B6
:104DB80004010D59040104011251040104010E59A2
:104DC800040104011351040104010F59D8A001D0B2
:104DD80001D01BD0040104011051040104010C5F2F
:104DE800040104011151040104010D5B04010401D3
:104DF8001251040104010E5B040104011351040162
:104E080004010F5B0401040116810401D890040118
:104E18001333040112330401113304011033040164
:104E28000401142FB1D7040104011551D8B401D0DD
:104E380001D010D004010401191F0401181F040136
:104E4800171F0401166D000E04011723040118230F
:104E58000401192316C40CF417C40DF418C40EF475
:104E680019C40FF400D01200000E040104015A6F97
:104E7800000E040104015B6F000E040104015C6F65
:104E88000401580E04010401606F0401040E0401BA
:104E9800616F0401510E040104015E6F0401040EE8
:104EA80004015F6FA5EC37F004010401576F04019A
:104EB800590E04010401606F0401040E0401616FBE
:104EC8000401540E040104015E6F0401040E040180
:104ED8005F6FA5EC37F004010401571B04010401BE
:104EE8005951D8B401D001D006D004010401586743
:104EF80001D001D007D05AC451F45BC452F45CC449
:104F080053F48DD00401040159517B0F04010401AD
:104F1800582704015D6F070E04010401596F04014D
:104F28005D510401040151A101D001D012D0040146
:104F380004015451040104015A2704010401555184
:104F4800040104015B230401040156510401040116
:104F58005C230401D8900401533304015233040143
:104F680051330401D8900401543704015537040122
:104F7800563704010401592FD4D704015D6F090E77
:104F880004010401596F04015D510401040151A198
:104F980001D001D012D004010401545104010401CC
:104FA8005A27040104015551040104015B2304013B
:104FB80004015651040104015C230401D890040142
:104FC800533304015233040151330401D8900401CE
:104FD8005C3304015B3304015A3304010401592F83
:104FE800D4D758C460F404015A0E040104015E6F5A
:104FF8000401040E04015F6F98EC2FF00401040112
:105008005751D8B401D001D003D0040104015C8FFA
:105018005AC451F45BC452F45CC453F400D0120077
:10502800B8EC3BF0D8A001D001D006D0010E30601A
:1050380001D001D001D0302A1CEC3BF0D8A001D01F
:1050480001D006D03050D8B401D001D001D03006FC
:1050580091EC3BF0D8A001D001D012D0040E04018D
:105068000401056F000E0401066F3BEC3CF0306E46
:105078000401016F180E00010001E66F04010151DF
:1050880043EC3BF0D8A001D001D013D030C005F4D8
:10509800040E04010401036F000E0401046F1EECEA
:1050A8003CF00401016F180E00010001E66F0401D5
:1050B8000151C7EC3CF0C40E04010401036FFE0E5D
:1050C8000401046FDFEC3BF0E30E04010401036FFD
:1050D800000E0401046FD8EC09F00401016F0C0EF6
:1050E80004010401046F040101510401026F010E5F
:1050F80004010401036F04010251C2EC3AF00401F7
:10510800016F060E040104010C6F04010151DAEC71
:105118003CF0D50E04010401036FFF0E0401046F77
:10512800DFEC3BF0BBEC3CF03004D8A401D001D05C
:105138000AD0930E04010401036FFE0E0401046FEC
:10514800DFEC3BF037D09A0E04010401036FFF0E29
:105158000401046FDFEC3BF0C10E04010401036F8E
:10516800000E0401046FD8EC09F00401016F060E6B
:1051780004010401046F040101510401026F020ECD
:1051880004010401036F04010251C2EC3AF0040166
:10519800016F070E040104010C6F04010151DAECE0
:1051A8003CF0710E04010401036FFF0E0401046F4B
:1051B800DFEC3BF000D01200B8EC3BF0D8B001D0E7
:1051C80001D006D030EC3AF0D8A001D001D00AD0F6
:1051D8006E0E3E5C000E3F58D8B001D001D002D010
:1051E8003E4A3F2A1CEC3BF0D8B001D001D006D093
:1051F80061EC3AF0D8A001D001D00BD05A0E3E5C39
:10520800000E3F58D8A001D001D003D03E06D8A048
:105218003F0691EC3BF0D8A001D001D017D0090E81
:1052280004010401056F000E0401066F3BEC3CF01D
:105238000401016F040101513E6E3F6A0401016FD0
:105248001D0E00010001E66F0401015143EC3BF023
:10525800D8A001D001D013D03EC005F4090E040136
:105268000401036F000E0401046F1EEC3CF00401FE
:10527800016F1D0E00010001E66F04010151C7EC2A
:105288003CF0C70E04010401036FFD0E0401046F16
:10529800DFEC3BF0BBEC3CF05A0E3E5C000E3F5896
:1052A800D8A001D001D03FD0DE0E04010401036F65
:1052B800FE0E0401046FDFEC3BF004013EC003F472
:1052C80004013FC004F404010401056B0401066BEA
:1052D80076EC10F02050300F040104010C6FDAEC6A
:1052E8003CF02750300F040104010C6FDAEC3CF05D
:1052F8002650300F040104010C6FDAEC3CF0040175
:10530800016FDF0E040104010C6F04010151DAEC96
:105318003CF0FB0E04010401036FFF0E0401046F4F
:10532800DFEC3BF009D0720E04010401036FFD0E9F
:105338000401046FDFEC3BF000D012000401116F90
:10534800000E04010401106F040111510401116FD2
:10535800000E040104010F6F0401115100A401D0D3
:10536800838800B401D08398280E04010401136FC8
:10537800000E0401146F9BEC3CF00EC411F4100EE7
:10538800040111170401113B0F0E1117040111310B
:10539800D8A001D08380D8B001D083900EC411F476
:1053A800200E04011117050E0401126FD890040194
:1053B80011330401122FFAD704011131D8A001D0FA
:1053C8008382D8B001D083920EC411F4400E040138
:1053D8001117060E0401126FD8900401113304014D
:1053E800122FFAD704011131D8A001D08384D8B084
:1053F80001D083940EC411F4800E04011117000E1D
:1054080011BF010E116F04011131D8A001D083869C
:10541800D8B001D08396838A839A040104010EA12F
:1054280001D08380040104010EB101D083900EC421
:1054380011F4020E04011117D8900401113304016C
:105448001131D8A001D08382D8B001D083920EC484
:1054580011F4040E04011117D89004011133D890E7
:105468000401113304011131D8A001D08384D8B0CC
:1054780001D083940EC411F4080E04011117D890BA
:1054880004011133D89004011133D8900401113369
:1054980004011131D8A001D08386D8B001D08396F9
:1054A800838A839A280E04010401136F000E0401F5
:1054B800146F9BEC3CF000D01200C7EC3CF0530E8C
:1054C80004010401036FFF0E0401046FDFEC3BF0DD
:1054D80000010401DEC003F400010401DFC004F48C
:1054E80004010401056B0401066B76EC10F02550ED
:1054F800300F040104010C6FDAEC3CF02050300F3F
:10550800040104010C6FDAEC3CF02750300F040161
:1055180004010C6FDAEC3CF02650300F0401040152
:105528000C6FDAEC3CF0CD0E04010401036FFF0EA2
:105538000401046FDFEC3BF0BBEC3CF0CB0E040144
:105548000401036FFF0E0401046FDFEC3BF0ED0E66
:1055580004010401036F000E0401046FD8EC09F084
:105568000401016F010E04010401046F04010151DB
:105578000401026F020E04010401036F04010251C9
:10558800C2EC3AF00401016F060E040104010C6F2D
:1055980004010151DAEC3CF0840E04010401036FAC
:1055A800FF0E0401046FDFEC3BF000010401DCC0D6
:1055B80003F400010401DDC004F404010401056BD7
:1055C8000401066B76EC10F02550300F040104013D
:1055D8000C6FDAEC3CF02050300F040104010C6F22
:1055E800DAEC3CF02750300F040104010C6FDAECC0
:1055F8003CF02650300F040104010C6FDAEC3CF04B
:10560800CD0E04010401036FFF0E0401046FDFECEB
:105618003BF000D012008398839A320E04010401F3
:10562800076F000E0401086F54EC3CF00401056F8D
:10563800030E040104010D6F04010551D3EC3CF085
:105648000F0E04010401076F000E0401086F54ECEB
:105658003CF00401056F030E040104010D6F040101
:105668000551D3EC3CF00F0E04010401076F000E46
:105678000401086F54EC3CF00401056F030E0401AB
:1056880004010D6F04010551D3EC3CF00F0E040129
:105698000401076F000E0401086F54EC3CF004018C
:1056A800056F020E040104010D6F04010551D3ECCE
:1056B8003CF00F0E04010401076F000E0401086F8F
:1056C80054EC3CF00401056F280E040104010D6F31
:1056D80004010551D3EC3CF00F0E04010401076FDF
:1056E800000E0401086F54EC3CF00401056F080E2D
:1056F800040104010D6F04010551D3EC3CF00F0EB9
:1057080004010401076F000E0401086F54EC3CF01B
:1057180085EC3CF00F0E04010401076F000E040134
:10572800086F54EC3CF085EC3CF00F0E04010401CA
:10573800076F000E0401086F54EC3CF00401056F7C
:105748000C0E040104010D6F04010551D3EC3CF06B
:105758000F0E04010401076F000E0401086F54ECDA
:105768003CF085EC3CF0C7EC3CF000D01200C7ECF4
:105778003CF0D80E04010401036FFD0E0401046F10
:10578800DFEC3BF0BBEC3CF000010401C8C003F4C3
:1057980000010401C9C004F404010401056B0401FB
:1057A800066B76EC10F02050300F040104010C6FEA
:1057B800DAEC3CF02750300F040104010C6FDAECEE
:1057C8003CF02650300F040104010C6FDAEC3CF079
:1057D8000401016FDF0E040104010C6F0401015183
:1057E800DAEC3CF0C80E04010401036FFF0E04015B
:1057F800046FDFEC3BF0E10E04010401036F000EBF
:105808000401046FD8EC09F00401016F080E0401CB
:105818000401046F040101510401026F020E040126
:105828000401036F04010251C2EC3AF00401016F54
:10583800070E040104010C6F04010151DAEC3CF07D
:10584800F50E04010401036FFF0E0401046FDFEC81
:105858003BF0040133C003F4040134C004F4040130
:105868000401056B0401066B76EC10F02050300F34
:10587800040104010C6FDAEC3CF02750300F0401EE
:1058880004010C6FDAEC3CF02650300F04010401DF
:105898000C6FDAEC3CF00401016FDF0E0401040127
:1058A8000C6F04010151DAEC3CF0EC0E0401040128
:1058B800036FFF0E0401046FDFEC3BF000D0120011
:1058C800640E04010401076F000E0401086F54EC14
:1058D8003CF00401036F000E04010401026F04018F
:1058E80003511D0E04010401026501D001D001D04D
:1058F8001ED0838E0E0E04010401136F010E0401E5
:10590800146F9BEC3CF0839E0E0E04010401136F90
:10591800010E0401146F9BEC3CF004010401022BFE
:105928001D0E04010401026501D001D0E2D71E0E4C
:1059380004010401076F000E0401086F54EC3CF0E9
:105948000401036F000E04010401026F04010351F6
:105958001D0E04010401026501D001D001D01ED042
:10596800838E0E0E04010401136F010E0401146FDF
:105978009BEC3CF0839E0E0E04010401136F010E94
:105988000401146F9BEC3CF004010401022B1D0E72
:1059980004010401026501D001D0E2D71E0E040102
:1059A8000401076F000E0401086F54EC3CF0040179
:1059B800036F000E04010401026F040103511D0E60
:1059C80004010401026501D001D001D01ED0838EEC
:1059D8000E0E04010401136F010E0401146F9BECF9
:1059E8003CF0839E0E0E04010401136F010E0401A6
:1059F800146F9BEC3CF004010401022B1D0E040102
:105A08000401026501D001D0E2D700D01200C7EC32
:105A18003CF0A50E04010401036FFD0E0401046FA0
:105A2800DFEC3BF0BBEC3CF0040111C003F40401D3
:105A380012C004F404010401056B0401066B76EC42
:105A480010F02050300F040104010C6FDAEC3CF028
:105A58002750300F040104010C6FDAEC3CF026509B
:105A6800300F040104010C6FDAEC3CF00401016F03
:105A7800DF0E040104010C6F04010151DAEC3CF063
:105A8800C80E04010401036FFF0E0401046FDFEC6C
:105A98003BF0E10E04010401036F000E0401046FE2
:105AA800D8EC09F00401016F080E04010401046F29
:105AB800040101510401026F020E04010401036F85
:105AC80004010251C2EC3AF00401016F070E04010F
:105AD80004010C6F04010151DAEC3CF0F50E0401ED
